{
  "_format": "hh-sol-artifact-1",
  "contractName": "DragonHorde",
  "sourceName": "contracts/DragonHorde.sol",
  "abi": [
    {
      "inputs": [],
      "stateMutability": "nonpayable",
      "type": "constructor"
    },
    {
      "anonymous": false,
      "inputs": [
        {
          "indexed": true,
          "internalType": "address",
          "name": "from",
          "type": "address"
        },
        {
          "indexed": false,
          "internalType": "uint256",
          "name": "amount",
          "type": "uint256"
        }
      ],
      "name": "ContributeGold",
      "type": "event"
    },
    {
      "anonymous": false,
      "inputs": [
        {
          "indexed": false,
          "internalType": "bool",
          "name": "mood",
          "type": "bool"
        }
      ],
      "name": "MoodChange",
      "type": "event"
    },
    {
      "anonymous": false,
      "inputs": [
        {
          "indexed": true,
          "internalType": "address",
          "name": "from",
          "type": "address"
        },
        {
          "indexed": false,
          "internalType": "uint256",
          "name": "amount",
          "type": "uint256"
        }
      ],
      "name": "RequestGold",
      "type": "event"
    },
    {
      "inputs": [
        {
          "internalType": "address",
          "name": "_minion",
          "type": "address"
        }
      ],
      "name": "appointMinion",
      "outputs": [],
      "stateMutability": "nonpayable",
      "type": "function"
    },
    {
      "inputs": [],
      "name": "contributeGold",
      "outputs": [],
      "stateMutability": "payable",
      "type": "function"
    },
    {
      "inputs": [],
      "name": "dragon",
      "outputs": [
        {
          "internalType": "address",
          "name": "",
          "type": "address"
        }
      ],
      "stateMutability": "view",
      "type": "function"
    },
    {
      "inputs": [],
      "name": "dragonName",
      "outputs": [
        {
          "internalType": "string",
          "name": "",
          "type": "string"
        }
      ],
      "stateMutability": "view",
      "type": "function"
    },
    {
      "inputs": [],
      "name": "getHordeSize",
      "outputs": [
        {
          "internalType": "uint256",
          "name": "",
          "type": "uint256"
        }
      ],
      "stateMutability": "view",
      "type": "function"
    },
    {
      "inputs": [],
      "name": "isGoodMood",
      "outputs": [
        {
          "internalType": "bool",
          "name": "",
          "type": "bool"
        }
      ],
      "stateMutability": "view",
      "type": "function"
    },
    {
      "inputs": [
        {
          "internalType": "address",
          "name": "",
          "type": "address"
        }
      ],
      "name": "minions",
      "outputs": [
        {
          "internalType": "bool",
          "name": "",
          "type": "bool"
        }
      ],
      "stateMutability": "view",
      "type": "function"
    },
    {
      "inputs": [
        {
          "internalType": "address payable",
          "name": "_to",
          "type": "address"
        },
        {
          "internalType": "uint256",
          "name": "_total",
          "type": "uint256"
        }
      ],
      "name": "requestGold",
      "outputs": [],
      "stateMutability": "nonpayable",
      "type": "function"
    },
    {
      "inputs": [
        {
          "internalType": "address",
          "name": "_minion",
          "type": "address"
        }
      ],
      "name": "retireMinion",
      "outputs": [],
      "stateMutability": "nonpayable",
      "type": "function"
    },
    {
      "inputs": [
        {
          "internalType": "string",
          "name": "_name",
          "type": "string"
        }
      ],
      "name": "setDragonName",
      "outputs": [],
      "stateMutability": "nonpayable",
      "type": "function"
    },
    {
      "inputs": [
        {
          "internalType": "bool",
          "name": "_mood",
          "type": "bool"
        }
      ],
      "name": "setMood",
      "outputs": [],
      "stateMutability": "nonpayable",
      "type": "function"
    }
  ],
  "bytecode": "0x608060405234801561001057600080fd5b50336000806101000a81548173ffffffffffffffffffffffffffffffffffffffff021916908373ffffffffffffffffffffffffffffffffffffffff160217905550610f12806100606000396000f3fe60806040526004361061009c5760003560e01c8063c9bb13df11610064578063c9bb13df14610172578063d16b4b0b1461017c578063d67014df146101a5578063d972ea3e146101e2578063e924f53b1461020d578063f61122c9146102365761009c565b806352f81edd146100a157806368bc7797146100ca578063a40ff73c146100f3578063af5560f91461011e578063c244495d14610149575b600080fd5b3480156100ad57600080fd5b506100c860048036038101906100c39190610a38565b610261565b005b3480156100d657600080fd5b506100f160048036038101906100ec9190610a38565b610314565b005b3480156100ff57600080fd5b506101086103c7565b6040516101159190610c49565b60405180910390f35b34801561012a57600080fd5b50610133610455565b6040516101409190610cab565b60405180910390f35b34801561015557600080fd5b50610170600480360381019061016b9190610a9d565b6104b6565b005b61017a610562565b005b34801561018857600080fd5b506101a3600480360381019061019e9190610a61565b610657565b005b3480156101b157600080fd5b506101cc60048036038101906101c79190610a38565b610810565b6040516101d99190610c2e565b60405180910390f35b3480156101ee57600080fd5b506101f7610830565b6040516102049190610c13565b60405180910390f35b34801561021957600080fd5b50610234600480360381019061022f9190610ac6565b610854565b005b34801561024257600080fd5b5061024b6108c6565b6040516102589190610c2e565b60405180910390f35b60008054906101000a900473ffffffffffffffffffffffffffffffffffffffff1673ffffffffffffffffffffffffffffffffffffffff163373ffffffffffffffffffffffffffffffffffffffff16146102b957600080fd5b6000600360008373ffffffffffffffffffffffffffffffffffffffff1673ffffffffffffffffffffffffffffffffffffffff16815260200190815260200160002060006101000a81548160ff02191690831515021790555050565b60008054906101000a900473ffffffffffffffffffffffffffffffffffffffff1673ffffffffffffffffffffffffffffffffffffffff163373ffffffffffffffffffffffffffffffffffffffff161461036c57600080fd5b6001600360008373ffffffffffffffffffffffffffffffffffffffff1673ffffffffffffffffffffffffffffffffffffffff16815260200190815260200160002060006101000a81548160ff02191690831515021790555050565b600180546103d490610ddf565b80601f016020809104026020016040519081016040528092919081815260200182805461040090610ddf565b801561044d5780601f106104225761010080835404028352916020019161044d565b820191906000526020600020905b81548152906001019060200180831161043057829003601f168201915b505050505081565b60008060009054906101000a900473ffffffffffffffffffffffffffffffffffffffff1673ffffffffffffffffffffffffffffffffffffffff163373ffffffffffffffffffffffffffffffffffffffff16146104b057600080fd5b47905090565b60008054906101000a900473ffffffffffffffffffffffffffffffffffffffff1673ffffffffffffffffffffffffffffffffffffffff163373ffffffffffffffffffffffffffffffffffffffff161461050e57600080fd5b80600260006101000a81548160ff0219169083151502179055507f7c3ed950f92d8e269e6d6486b6c5b62f1820905d3e84c742893286ed5bb64b74816040516105579190610c2e565b60405180910390a150565b60003414156105a6576040517f08c379a000000000000000000000000000000000000000000000000000000000815260040161059d90610c8b565b60405180910390fd5b6001600260006101000a81548160ff0219169083151502179055503373ffffffffffffffffffffffffffffffffffffffff167f58bf4554fe34161bfbe3f46c2ea1a6918cc60d1e48784f43dd06ad2986a0af5d346040516106079190610cab565b60405180910390a27f7c3ed950f92d8e269e6d6486b6c5b62f1820905d3e84c742893286ed5bb64b74600260009054906101000a900460ff1660405161064d9190610c2e565b60405180910390a1565b60011515600360003373ffffffffffffffffffffffffffffffffffffffff1673ffffffffffffffffffffffffffffffffffffffff16815260200190815260200160002060009054906101000a900460ff161515146106b457600080fd5b4781111580156106d7575060011515600260009054906101000a900460ff161515145b610716576040517f08c379a000000000000000000000000000000000000000000000000000000000815260040161070d90610c6b565b60405180910390fd5b6000600260006101000a81548160ff0219169083151502179055503373ffffffffffffffffffffffffffffffffffffffff167fb6cd92bb9b4aebd1618b64a4951fde6678c5cb9c245ffc1e026ecb6afccca177826040516107779190610cab565b60405180910390a27f7c3ed950f92d8e269e6d6486b6c5b62f1820905d3e84c742893286ed5bb64b74600260009054906101000a900460ff166040516107bd9190610c2e565b60405180910390a18173ffffffffffffffffffffffffffffffffffffffff166108fc829081150290604051600060405180830381858888f1935050505015801561080b573d6000803e3d6000fd5b505050565b60036020528060005260406000206000915054906101000a900460ff1681565b60008054906101000a900473ffffffffffffffffffffffffffffffffffffffff1681565b60008054906101000a900473ffffffffffffffffffffffffffffffffffffffff1673ffffffffffffffffffffffffffffffffffffffff163373ffffffffffffffffffffffffffffffffffffffff16146108ac57600080fd5b80600190805190602001906108c29291906108d9565b5050565b600260009054906101000a900460ff1681565b8280546108e590610ddf565b90600052602060002090601f016020900481019282610907576000855561094e565b82601f1061092057805160ff191683800117855561094e565b8280016001018555821561094e579182015b8281111561094d578251825591602001919060010190610932565b5b50905061095b919061095f565b5090565b5b80821115610978576000816000905550600101610960565b5090565b600061098f61098a84610cf7565b610cc6565b9050828152602081018484840111156109a757600080fd5b6109b2848285610d9d565b509392505050565b6000813590506109c981610e80565b92915050565b6000813590506109de81610e97565b92915050565b6000813590506109f381610eae565b92915050565b600082601f830112610a0a57600080fd5b8135610a1a84826020860161097c565b91505092915050565b600081359050610a3281610ec5565b92915050565b600060208284031215610a4a57600080fd5b6000610a58848285016109ba565b91505092915050565b60008060408385031215610a7457600080fd5b6000610a82858286016109cf565b9250506020610a9385828601610a23565b9150509250929050565b600060208284031215610aaf57600080fd5b6000610abd848285016109e4565b91505092915050565b600060208284031215610ad857600080fd5b600082013567ffffffffffffffff811115610af257600080fd5b610afe848285016109f9565b91505092915050565b610b1081610d43565b82525050565b610b1f81610d67565b82525050565b6000610b3082610d27565b610b3a8185610d32565b9350610b4a818560208601610dac565b610b5381610e6f565b840191505092915050565b6000610b6b600f83610d32565b91507f526571756573742064656e6965642e00000000000000000000000000000000006000830152602082019050919050565b6000610bab602383610d32565b91507f54686520636f6e747269627574696f6e2063616e6e6f74206265206e6f74686960008301527f6e672e00000000000000000000000000000000000000000000000000000000006020830152604082019050919050565b610c0d81610d93565b82525050565b6000602082019050610c286000830184610b07565b92915050565b6000602082019050610c436000830184610b16565b92915050565b60006020820190508181036000830152610c638184610b25565b905092915050565b60006020820190508181036000830152610c8481610b5e565b9050919050565b60006020820190508181036000830152610ca481610b9e565b9050919050565b6000602082019050610cc06000830184610c04565b92915050565b6000604051905081810181811067ffffffffffffffff82111715610ced57610cec610e40565b5b8060405250919050565b600067ffffffffffffffff821115610d1257610d11610e40565b5b601f19601f8301169050602081019050919050565b600081519050919050565b600082825260208201905092915050565b6000610d4e82610d73565b9050919050565b6000610d6082610d73565b9050919050565b60008115159050919050565b600073ffffffffffffffffffffffffffffffffffffffff82169050919050565b6000819050919050565b82818337600083830152505050565b60005b83811015610dca578082015181840152602081019050610daf565b83811115610dd9576000848401525b50505050565b60006002820490506001821680610df757607f821691505b60208210811415610e0b57610e0a610e11565b5b50919050565b7f4e487b7100000000000000000000000000000000000000000000000000000000600052602260045260246000fd5b7f4e487b7100000000000000000000000000000000000000000000000000000000600052604160045260246000fd5b6000601f19601f8301169050919050565b610e8981610d43565b8114610e9457600080fd5b50565b610ea081610d55565b8114610eab57600080fd5b50565b610eb781610d67565b8114610ec257600080fd5b50565b610ece81610d93565b8114610ed957600080fd5b5056fea2646970667358221220980f9d0bccd4ced67a9e37ee2f5a5dcea5ef77131859aa99b4f76d574e33560f64736f6c63430008000033",
  "linkReferences": {},
  "deployedLinkReferences": {}
}